{
  "_format": "hh-sol-artifact-1",
  "contractName": "PriceFeeds",
  "sourceName": "contracts/PriceFeeds.sol",
  "abi": [
    {
      "inputs": [
        {
          "internalType": "contract IWitnetPriceRouter",
          "name": "_router",
          "type": "address"
        },
        {
          "internalType": "bytes4[]",
          "name": "_ID4",
          "type": "bytes4[]"
        }
      ],
      "stateMutability": "nonpayable",
      "type": "constructor"
    },
    {
      "inputs": [
        {
          "internalType": "bytes4",
          "name": "_ID4",
          "type": "bytes4"
        }
      ],
      "name": "getPriceFeedLastValues",
      "outputs": [
        {
          "internalType": "int256",
          "name": "_lastPrices",
          "type": "int256"
        },
        {
          "internalType": "uint256",
          "name": "_lastTimestamps",
          "type": "uint256"
        }
      ],
      "stateMutability": "view",
      "type": "function"
    },
    {
      "inputs": [
        {
          "internalType": "bytes4",
          "name": "",
          "type": "bytes4"
        }
      ],
      "name": "priceFeeds",
      "outputs": [
        {
          "internalType": "contract IWitnetPriceFeed",
          "name": "",
          "type": "address"
        }
      ],
      "stateMutability": "view",
      "type": "function"
    },
    {
      "inputs": [],
      "name": "updatePriceFeeds",
      "outputs": [],
      "stateMutability": "nonpayable",
      "type": "function"
    },
    {
      "inputs": [],
      "name": "witnetPriceRouter",
      "outputs": [
        {
          "internalType": "contract IWitnetPriceRouter",
          "name": "",
          "type": "address"
        }
      ],
      "stateMutability": "view",
      "type": "function"
    }
  ],
  "bytecode": "0x60a06040523480156200001157600080fd5b5060405162000fb138038062000fb1833981810160405281019062000037919062000582565b8173ffffffffffffffffffffffffffffffffffffffff1660808173ffffffffffffffffffffffffffffffffffffffff168152505080600190805190602001906200008392919062000250565b50620000946200009c60201b60201c565b505062000756565b60005b6001805490508110156200024d57600060018281548110620000c657620000c5620005e8565b5b90600052602060002090600891828204019190066004029054906101000a900460e01b9050600060805173ffffffffffffffffffffffffffffffffffffffff16638c0adf62836040518263ffffffff1660e01b81526004016200012a91906200063c565b602060405180830381865afa15801562000148573d6000803e3d6000fd5b505050506040513d601f19601f820116820180604052508101906200016e91906200069e565b9050600073ffffffffffffffffffffffffffffffffffffffff168173ffffffffffffffffffffffffffffffffffffffff1614620002355780600080847bffffffffffffffffffffffffffffffffffffffffffffffffffffffff19167bffffffffffffffffffffffffffffffffffffffffffffffffffffffff1916815260200190815260200160002060006101000a81548173ffffffffffffffffffffffffffffffffffffffff021916908373ffffffffffffffffffffffffffffffffffffffff1602179055505b50508080620002449062000709565b9150506200009f565b50565b82805482825590600052602060002090600701600890048101928215620002f15791602002820160005b83821115620002bd57835183826101000a81548163ffffffff021916908360e01c021790555092602001926004016020816003010492830192600103026200027a565b8015620002ef5782816101000a81549063ffffffff0219169055600401602081600301049283019260010302620002bd565b505b50905062000300919062000304565b5090565b5b808211156200031f57600081600090555060010162000305565b5090565b6000604051905090565b600080fd5b600080fd5b600073ffffffffffffffffffffffffffffffffffffffff82169050919050565b6000620003648262000337565b9050919050565b6000620003788262000357565b9050919050565b6200038a816200036b565b81146200039657600080fd5b50565b600081519050620003aa816200037f565b92915050565b600080fd5b6000601f19601f8301169050919050565b7f4e487b7100000000000000000000000000000000000000000000000000000000600052604160045260246000fd5b6200040082620003b5565b810181811067ffffffffffffffff82111715620004225762000421620003c6565b5b80604052505050565b60006200043762000323565b9050620004458282620003f5565b919050565b600067ffffffffffffffff821115620004685762000467620003c6565b5b602082029050602081019050919050565b600080fd5b60007fffffffff0000000000000000000000000000000000000000000000000000000082169050919050565b620004b5816200047e565b8114620004c157600080fd5b50565b600081519050620004d581620004aa565b92915050565b6000620004f2620004ec846200044a565b6200042b565b9050808382526020820190506020840283018581111562000518576200051762000479565b5b835b81811015620005455780620005308882620004c4565b8452602084019350506020810190506200051a565b5050509392505050565b600082601f830112620005675762000566620003b0565b5b815162000579848260208601620004db565b91505092915050565b600080604083850312156200059c576200059b6200032d565b5b6000620005ac8582860162000399565b925050602083015167ffffffffffffffff811115620005d057620005cf62000332565b5b620005de858286016200054f565b9150509250929050565b7f4e487b7100000000000000000000000000000000000000000000000000000000600052603260045260246000fd5b600062000624826200047e565b9050919050565b620006368162000617565b82525050565b60006020820190506200065360008301846200062b565b92915050565b6000620006668262000357565b9050919050565b620006788162000659565b81146200068457600080fd5b50565b60008151905062000698816200066d565b92915050565b600060208284031215620006b757620006b66200032d565b5b6000620006c78482850162000687565b91505092915050565b7f4e487b7100000000000000000000000000000000000000000000000000000000600052601160045260246000fd5b6000819050919050565b60006200071682620006ff565b91507fffffffffffffffffffffffffffffffffffffffffffffffffffffffffffffffff82036200074b576200074a620006d0565b5b600182019050919050565b608051610839620007786000396000818160dc015261027e01526108396000f3fe608060405234801561001057600080fd5b506004361061004c5760003560e01c80634fc87f241461005157806359bf0cff1461006f5780636ccfb10e146100a0578063f8e5aa10146100d0575b600080fd5b6100596100da565b6040516100669190610473565b60405180910390f35b610089600480360381019061008491906104eb565b6100fe565b60405161009792919061054a565b60405180910390f35b6100ba60048036038101906100b591906104eb565b6101fc565b6040516100c79190610594565b60405180910390f35b6100d861022f565b005b7f000000000000000000000000000000000000000000000000000000000000000081565b6000806000806000857bffffffffffffffffffffffffffffffffffffffffffffffffffffffff19167bffffffffffffffffffffffffffffffffffffffffffffffffffffffff1916815260200190815260200160002060009054906101000a900473ffffffffffffffffffffffffffffffffffffffff1690506000808273ffffffffffffffffffffffffffffffffffffffff1663431838346040518163ffffffff1660e01b8152600401608060405180830381865afa1580156101c4573d6000803e3d6000fd5b505050506040513d601f19601f820116820180604052508101906101e8919061063d565b505091509150819450809350505050915091565b60006020528060005260406000206000915054906101000a900473ffffffffffffffffffffffffffffffffffffffff1681565b60005b6001805490508110156103f157600060018281548110610255576102546106a4565b5b90600052602060002090600891828204019190066004029054906101000a900460e01b905060007f000000000000000000000000000000000000000000000000000000000000000073ffffffffffffffffffffffffffffffffffffffff16638c0adf62836040518263ffffffff1660e01b81526004016102d591906106f4565b602060405180830381865afa1580156102f2573d6000803e3d6000fd5b505050506040513d601f19601f82011682018060405250810190610316919061075f565b9050600073ffffffffffffffffffffffffffffffffffffffff168173ffffffffffffffffffffffffffffffffffffffff16146103dc5780600080847bffffffffffffffffffffffffffffffffffffffffffffffffffffffff19167bffffffffffffffffffffffffffffffffffffffffffffffffffffffff1916815260200190815260200160002060006101000a81548173ffffffffffffffffffffffffffffffffffffffff021916908373ffffffffffffffffffffffffffffffffffffffff1602179055505b505080806103e9906107bb565b915050610232565b50565b600073ffffffffffffffffffffffffffffffffffffffff82169050919050565b6000819050919050565b600061043961043461042f846103f4565b610414565b6103f4565b9050919050565b600061044b8261041e565b9050919050565b600061045d82610440565b9050919050565b61046d81610452565b82525050565b60006020820190506104886000830184610464565b92915050565b600080fd5b60007fffffffff0000000000000000000000000000000000000000000000000000000082169050919050565b6104c881610493565b81146104d357600080fd5b50565b6000813590506104e5816104bf565b92915050565b6000602082840312156105015761050061048e565b5b600061050f848285016104d6565b91505092915050565b6000819050919050565b61052b81610518565b82525050565b6000819050919050565b61054481610531565b82525050565b600060408201905061055f6000830185610522565b61056c602083018461053b565b9392505050565b600061057e82610440565b9050919050565b61058e81610573565b82525050565b60006020820190506105a96000830184610585565b92915050565b6105b881610518565b81146105c357600080fd5b50565b6000815190506105d5816105af565b92915050565b6105e481610531565b81146105ef57600080fd5b50565b600081519050610601816105db565b92915050565b6000819050919050565b61061a81610607565b811461062557600080fd5b50565b60008151905061063781610611565b92915050565b600080600080608085870312156106575761065661048e565b5b6000610665878288016105c6565b9450506020610676878288016105f2565b935050604061068787828801610628565b9250506060610698878288016105f2565b91505092959194509250565b7f4e487b7100000000000000000000000000000000000000000000000000000000600052603260045260246000fd5b60006106de82610493565b9050919050565b6106ee816106d3565b82525050565b600060208201905061070960008301846106e5565b92915050565b600061071a826103f4565b9050919050565b600061072c8261070f565b9050919050565b61073c81610721565b811461074757600080fd5b50565b60008151905061075981610733565b92915050565b6000602082840312156107755761077461048e565b5b60006107838482850161074a565b91505092915050565b7f4e487b7100000000000000000000000000000000000000000000000000000000600052601160045260246000fd5b60006107c682610531565b91507fffffffffffffffffffffffffffffffffffffffffffffffffffffffffffffffff82036107f8576107f761078c565b5b60018201905091905056fea26469706673582212200dd2b6709df28d0a6987305a16e39119f5b679853eea2c33fb5d796ee15e9a9864736f6c63430008110033",
  "linkReferences": {},
  "deployedLinkReferences": {}
}