{
  "_format": "hh-sol-artifact-1",
  "contractName": "PriceFeeds",
  "sourceName": "contracts/PriceFeeds.sol",
  "abi": [
    {
      "inputs": [
        {
          "internalType": "contract IWitnetPriceRouter",
          "name": "_router",
          "type": "address"
        },
        {
          "internalType": "bytes4[]",
          "name": "_ID4",
          "type": "bytes4[]"
        }
      ],
      "stateMutability": "nonpayable",
      "type": "constructor"
    },
    {
      "inputs": [],
      "name": "checkAndUpdatePriceFeeds",
      "outputs": [],
      "stateMutability": "nonpayable",
      "type": "function"
    },
    {
      "inputs": [
        {
          "internalType": "bytes4",
          "name": "_ID4",
          "type": "bytes4"
        }
      ],
      "name": "getPriceFeedLastValues",
      "outputs": [
        {
          "internalType": "int256",
          "name": "_lastPrices",
          "type": "int256"
        },
        {
          "internalType": "uint256",
          "name": "_lastTimestamps",
          "type": "uint256"
        }
      ],
      "stateMutability": "nonpayable",
      "type": "function"
    },
    {
      "inputs": [],
      "name": "lastUpdateTime",
      "outputs": [
        {
          "internalType": "uint256",
          "name": "",
          "type": "uint256"
        }
      ],
      "stateMutability": "view",
      "type": "function"
    },
    {
      "inputs": [
        {
          "internalType": "bytes4",
          "name": "",
          "type": "bytes4"
        }
      ],
      "name": "priceFeeds",
      "outputs": [
        {
          "internalType": "contract IWitnetPriceFeed",
          "name": "",
          "type": "address"
        }
      ],
      "stateMutability": "view",
      "type": "function"
    },
    {
      "inputs": [],
      "name": "updatePriceFeeds",
      "outputs": [],
      "stateMutability": "nonpayable",
      "type": "function"
    },
    {
      "inputs": [],
      "name": "witnetPriceRouter",
      "outputs": [
        {
          "internalType": "contract IWitnetPriceRouter",
          "name": "",
          "type": "address"
        }
      ],
      "stateMutability": "view",
      "type": "function"
    }
  ],
  "bytecode": "0x60806040523480156200001157600080fd5b5060405162001097380380620010978339818101604052810190620000379190620005b5565b816000806101000a81548173ffffffffffffffffffffffffffffffffffffffff021916908373ffffffffffffffffffffffffffffffffffffffff16021790555080600290805190602001906200008f92919062000283565b5042600381905550620000a7620000af60201b60201c565b505062000789565b60005b6002805490508110156200028057600060028281548110620000d957620000d86200061b565b5b90600052602060002090600891828204019190066004029054906101000a900460e01b905060008060009054906101000a900473ffffffffffffffffffffffffffffffffffffffff1673ffffffffffffffffffffffffffffffffffffffff16638c0adf62836040518263ffffffff1660e01b81526004016200015c91906200066f565b602060405180830381865afa1580156200017a573d6000803e3d6000fd5b505050506040513d601f19601f82011682018060405250810190620001a09190620006d1565b9050600073ffffffffffffffffffffffffffffffffffffffff168173ffffffffffffffffffffffffffffffffffffffff161462000268578060016000847bffffffffffffffffffffffffffffffffffffffffffffffffffffffff19167bffffffffffffffffffffffffffffffffffffffffffffffffffffffff1916815260200190815260200160002060006101000a81548173ffffffffffffffffffffffffffffffffffffffff021916908373ffffffffffffffffffffffffffffffffffffffff1602179055505b5050808062000277906200073c565b915050620000b2565b50565b82805482825590600052602060002090600701600890048101928215620003245791602002820160005b83821115620002f057835183826101000a81548163ffffffff021916908360e01c02179055509260200192600401602081600301049283019260010302620002ad565b8015620003225782816101000a81549063ffffffff0219169055600401602081600301049283019260010302620002f0565b505b50905062000333919062000337565b5090565b5b808211156200035257600081600090555060010162000338565b5090565b6000604051905090565b600080fd5b600080fd5b600073ffffffffffffffffffffffffffffffffffffffff82169050919050565b600062000397826200036a565b9050919050565b6000620003ab826200038a565b9050919050565b620003bd816200039e565b8114620003c957600080fd5b50565b600081519050620003dd81620003b2565b92915050565b600080fd5b6000601f19601f8301169050919050565b7f4e487b7100000000000000000000000000000000000000000000000000000000600052604160045260246000fd5b6200043382620003e8565b810181811067ffffffffffffffff82111715620004555762000454620003f9565b5b80604052505050565b60006200046a62000356565b905062000478828262000428565b919050565b600067ffffffffffffffff8211156200049b576200049a620003f9565b5b602082029050602081019050919050565b600080fd5b60007fffffffff0000000000000000000000000000000000000000000000000000000082169050919050565b620004e881620004b1565b8114620004f457600080fd5b50565b6000815190506200050881620004dd565b92915050565b6000620005256200051f846200047d565b6200045e565b905080838252602082019050602084028301858111156200054b576200054a620004ac565b5b835b81811015620005785780620005638882620004f7565b8452602084019350506020810190506200054d565b5050509392505050565b600082601f8301126200059a5762000599620003e3565b5b8151620005ac8482602086016200050e565b91505092915050565b60008060408385031215620005cf57620005ce62000360565b5b6000620005df85828601620003cc565b925050602083015167ffffffffffffffff81111562000603576200060262000365565b5b620006118582860162000582565b9150509250929050565b7f4e487b7100000000000000000000000000000000000000000000000000000000600052603260045260246000fd5b60006200065782620004b1565b9050919050565b62000669816200064a565b82525050565b60006020820190506200068660008301846200065e565b92915050565b600062000699826200038a565b9050919050565b620006ab816200068c565b8114620006b757600080fd5b50565b600081519050620006cb81620006a0565b92915050565b600060208284031215620006ea57620006e962000360565b5b6000620006fa84828501620006ba565b91505092915050565b7f4e487b7100000000000000000000000000000000000000000000000000000000600052601160045260246000fd5b6000819050919050565b6000620007498262000732565b91507fffffffffffffffffffffffffffffffffffffffffffffffffffffffffffffffff82036200077e576200077d62000703565b5b600182019050919050565b6108fe80620007996000396000f3fe608060405234801561001057600080fd5b50600436106100625760003560e01c80634fc87f241461006757806359bf0cff146100855780636ccfb10e146100b6578063c8f33c91146100e6578063f8e5aa1014610104578063feb8b8681461010e575b600080fd5b61006f610118565b60405161007c91906104e9565b60405180910390f35b61009f600480360381019061009a9190610561565b61013c565b6040516100ad9291906105c0565b60405180910390f35b6100d060048036038101906100cb9190610561565b610243565b6040516100dd919061060a565b60405180910390f35b6100ee610276565b6040516100fb9190610625565b60405180910390f35b61010c61027c565b005b610116610443565b005b60008054906101000a900473ffffffffffffffffffffffffffffffffffffffff1681565b600080610147610443565b600060016000857bffffffffffffffffffffffffffffffffffffffffffffffffffffffff19167bffffffffffffffffffffffffffffffffffffffffffffffffffffffff1916815260200190815260200160002060009054906101000a900473ffffffffffffffffffffffffffffffffffffffff1690506000808273ffffffffffffffffffffffffffffffffffffffff1663431838346040518163ffffffff1660e01b8152600401608060405180830381865afa15801561020b573d6000803e3d6000fd5b505050506040513d601f19601f8201168201806040525081019061022f91906106ce565b505091509150819450809350505050915091565b60016020528060005260406000206000915054906101000a900473ffffffffffffffffffffffffffffffffffffffff1681565b60035481565b60005b600280549050811015610440576000600282815481106102a2576102a1610735565b5b90600052602060002090600891828204019190066004029054906101000a900460e01b905060008060009054906101000a900473ffffffffffffffffffffffffffffffffffffffff1673ffffffffffffffffffffffffffffffffffffffff16638c0adf62836040518263ffffffff1660e01b81526004016103239190610785565b602060405180830381865afa158015610340573d6000803e3d6000fd5b505050506040513d601f19601f8201168201806040525081019061036491906107f0565b9050600073ffffffffffffffffffffffffffffffffffffffff168173ffffffffffffffffffffffffffffffffffffffff161461042b578060016000847bffffffffffffffffffffffffffffffffffffffffffffffffffffffff19167bffffffffffffffffffffffffffffffffffffffffffffffffffffffff1916815260200190815260200160002060006101000a81548173ffffffffffffffffffffffffffffffffffffffff021916908373ffffffffffffffffffffffffffffffffffffffff1602179055505b505080806104389061084c565b91505061027f565b50565b603c6003546104529190610894565b42106104685761046061027c565b426003819055505b565b600073ffffffffffffffffffffffffffffffffffffffff82169050919050565b6000819050919050565b60006104af6104aa6104a58461046a565b61048a565b61046a565b9050919050565b60006104c182610494565b9050919050565b60006104d3826104b6565b9050919050565b6104e3816104c8565b82525050565b60006020820190506104fe60008301846104da565b92915050565b600080fd5b60007fffffffff0000000000000000000000000000000000000000000000000000000082169050919050565b61053e81610509565b811461054957600080fd5b50565b60008135905061055b81610535565b92915050565b60006020828403121561057757610576610504565b5b60006105858482850161054c565b91505092915050565b6000819050919050565b6105a18161058e565b82525050565b6000819050919050565b6105ba816105a7565b82525050565b60006040820190506105d56000830185610598565b6105e260208301846105b1565b9392505050565b60006105f4826104b6565b9050919050565b610604816105e9565b82525050565b600060208201905061061f60008301846105fb565b92915050565b600060208201905061063a60008301846105b1565b92915050565b6106498161058e565b811461065457600080fd5b50565b60008151905061066681610640565b92915050565b610675816105a7565b811461068057600080fd5b50565b6000815190506106928161066c565b92915050565b6000819050919050565b6106ab81610698565b81146106b657600080fd5b50565b6000815190506106c8816106a2565b92915050565b600080600080608085870312156106e8576106e7610504565b5b60006106f687828801610657565b945050602061070787828801610683565b9350506040610718878288016106b9565b925050606061072987828801610683565b91505092959194509250565b7f4e487b7100000000000000000000000000000000000000000000000000000000600052603260045260246000fd5b600061076f82610509565b9050919050565b61077f81610764565b82525050565b600060208201905061079a6000830184610776565b92915050565b60006107ab8261046a565b9050919050565b60006107bd826107a0565b9050919050565b6107cd816107b2565b81146107d857600080fd5b50565b6000815190506107ea816107c4565b92915050565b60006020828403121561080657610805610504565b5b6000610814848285016107db565b91505092915050565b7f4e487b7100000000000000000000000000000000000000000000000000000000600052601160045260246000fd5b6000610857826105a7565b91507fffffffffffffffffffffffffffffffffffffffffffffffffffffffffffffffff82036108895761088861081d565b5b600182019050919050565b600061089f826105a7565b91506108aa836105a7565b92508282019050808211156108c2576108c161081d565b5b9291505056fea2646970667358221220d0541e782c2172087a979be0324503df09806fd52e701065bde2901e9956164064736f6c63430008110033",
  "linkReferences": {},
  "deployedLinkReferences": {}
}