{
  "_format": "hh-sol-artifact-1",
  "contractName": "PriceFeeds",
  "sourceName": "contracts/PriceFeeds.sol",
  "abi": [
    {
      "inputs": [
        {
          "internalType": "contract IWitnetPriceRouter",
          "name": "_router",
          "type": "address"
        },
        {
          "internalType": "bytes4[]",
          "name": "_ID4",
          "type": "bytes4[]"
        }
      ],
      "stateMutability": "nonpayable",
      "type": "constructor"
    },
    {
      "inputs": [],
      "name": "checkAndUpdatePriceFeeds",
      "outputs": [],
      "stateMutability": "nonpayable",
      "type": "function"
    },
    {
      "inputs": [
        {
          "internalType": "bytes4",
          "name": "_ID4",
          "type": "bytes4"
        }
      ],
      "name": "getPriceFeedLastValues",
      "outputs": [
        {
          "internalType": "int256",
          "name": "_lastPrices",
          "type": "int256"
        },
        {
          "internalType": "uint256",
          "name": "_lastTimestamps",
          "type": "uint256"
        }
      ],
      "stateMutability": "nonpayable",
      "type": "function"
    },
    {
      "inputs": [],
      "name": "lastUpdateTime",
      "outputs": [
        {
          "internalType": "uint256",
          "name": "",
          "type": "uint256"
        }
      ],
      "stateMutability": "view",
      "type": "function"
    },
    {
      "inputs": [
        {
          "internalType": "bytes4",
          "name": "",
          "type": "bytes4"
        }
      ],
      "name": "priceFeeds",
      "outputs": [
        {
          "internalType": "contract IWitnetPriceFeed",
          "name": "",
          "type": "address"
        }
      ],
      "stateMutability": "view",
      "type": "function"
    },
    {
      "inputs": [],
      "name": "updatePriceFeeds",
      "outputs": [],
      "stateMutability": "nonpayable",
      "type": "function"
    },
    {
      "inputs": [],
      "name": "witnetPriceRouter",
      "outputs": [
        {
          "internalType": "contract IWitnetPriceRouter",
          "name": "",
          "type": "address"
        }
      ],
      "stateMutability": "view",
      "type": "function"
    }
  ],
  "bytecode": "0x60a06040523480156200001157600080fd5b506040516200107b3803806200107b833981810160405281019062000037919062000589565b8173ffffffffffffffffffffffffffffffffffffffff1660808173ffffffffffffffffffffffffffffffffffffffff168152505080600190805190602001906200008392919062000257565b50426002819055506200009b620000a360201b60201c565b50506200075d565b60005b6001805490508110156200025457600060018281548110620000cd57620000cc620005ef565b5b90600052602060002090600891828204019190066004029054906101000a900460e01b9050600060805173ffffffffffffffffffffffffffffffffffffffff16638c0adf62836040518263ffffffff1660e01b815260040162000131919062000643565b602060405180830381865afa1580156200014f573d6000803e3d6000fd5b505050506040513d601f19601f82011682018060405250810190620001759190620006a5565b9050600073ffffffffffffffffffffffffffffffffffffffff168173ffffffffffffffffffffffffffffffffffffffff16146200023c5780600080847bffffffffffffffffffffffffffffffffffffffffffffffffffffffff19167bffffffffffffffffffffffffffffffffffffffffffffffffffffffff1916815260200190815260200160002060006101000a81548173ffffffffffffffffffffffffffffffffffffffff021916908373ffffffffffffffffffffffffffffffffffffffff1602179055505b505080806200024b9062000710565b915050620000a6565b50565b82805482825590600052602060002090600701600890048101928215620002f85791602002820160005b83821115620002c457835183826101000a81548163ffffffff021916908360e01c0217905550926020019260040160208160030104928301926001030262000281565b8015620002f65782816101000a81549063ffffffff0219169055600401602081600301049283019260010302620002c4565b505b5090506200030791906200030b565b5090565b5b80821115620003265760008160009055506001016200030c565b5090565b6000604051905090565b600080fd5b600080fd5b600073ffffffffffffffffffffffffffffffffffffffff82169050919050565b60006200036b826200033e565b9050919050565b60006200037f826200035e565b9050919050565b620003918162000372565b81146200039d57600080fd5b50565b600081519050620003b18162000386565b92915050565b600080fd5b6000601f19601f8301169050919050565b7f4e487b7100000000000000000000000000000000000000000000000000000000600052604160045260246000fd5b6200040782620003bc565b810181811067ffffffffffffffff82111715620004295762000428620003cd565b5b80604052505050565b60006200043e6200032a565b90506200044c8282620003fc565b919050565b600067ffffffffffffffff8211156200046f576200046e620003cd565b5b602082029050602081019050919050565b600080fd5b60007fffffffff0000000000000000000000000000000000000000000000000000000082169050919050565b620004bc8162000485565b8114620004c857600080fd5b50565b600081519050620004dc81620004b1565b92915050565b6000620004f9620004f38462000451565b62000432565b905080838252602082019050602084028301858111156200051f576200051e62000480565b5b835b818110156200054c5780620005378882620004cb565b84526020840193505060208101905062000521565b5050509392505050565b600082601f8301126200056e576200056d620003b7565b5b815162000580848260208601620004e2565b91505092915050565b60008060408385031215620005a357620005a262000334565b5b6000620005b385828601620003a0565b925050602083015167ffffffffffffffff811115620005d757620005d662000339565b5b620005e58582860162000556565b9150509250929050565b7f4e487b7100000000000000000000000000000000000000000000000000000000600052603260045260246000fd5b60006200062b8262000485565b9050919050565b6200063d816200061e565b82525050565b60006020820190506200065a600083018462000632565b92915050565b60006200066d826200035e565b9050919050565b6200067f8162000660565b81146200068b57600080fd5b50565b6000815190506200069f8162000674565b92915050565b600060208284031215620006be57620006bd62000334565b5b6000620006ce848285016200068e565b91505092915050565b7f4e487b7100000000000000000000000000000000000000000000000000000000600052601160045260246000fd5b6000819050919050565b60006200071d8262000706565b91507fffffffffffffffffffffffffffffffffffffffffffffffffffffffffffffffff8203620007525762000751620006d7565b5b600182019050919050565b6080516108fb620007806000396000818161011a01526102ca01526108fb6000f3fe608060405234801561001057600080fd5b50600436106100625760003560e01c80634fc87f241461006757806359bf0cff146100855780636ccfb10e146100b6578063c8f33c91146100e6578063f8e5aa1014610104578063feb8b8681461010e575b600080fd5b61006f610118565b60405161007c91906104e6565b60405180910390f35b61009f600480360381019061009a919061055e565b61013c565b6040516100ad9291906105bd565b60405180910390f35b6100d060048036038101906100cb919061055e565b610242565b6040516100dd9190610607565b60405180910390f35b6100ee610275565b6040516100fb9190610622565b60405180910390f35b61010c61027b565b005b610116610440565b005b7f000000000000000000000000000000000000000000000000000000000000000081565b600080610147610440565b6000806000857bffffffffffffffffffffffffffffffffffffffffffffffffffffffff19167bffffffffffffffffffffffffffffffffffffffffffffffffffffffff1916815260200190815260200160002060009054906101000a900473ffffffffffffffffffffffffffffffffffffffff1690506000808273ffffffffffffffffffffffffffffffffffffffff1663431838346040518163ffffffff1660e01b8152600401608060405180830381865afa15801561020a573d6000803e3d6000fd5b505050506040513d601f19601f8201168201806040525081019061022e91906106cb565b505091509150819450809350505050915091565b60006020528060005260406000206000915054906101000a900473ffffffffffffffffffffffffffffffffffffffff1681565b60025481565b60005b60018054905081101561043d576000600182815481106102a1576102a0610732565b5b90600052602060002090600891828204019190066004029054906101000a900460e01b905060007f000000000000000000000000000000000000000000000000000000000000000073ffffffffffffffffffffffffffffffffffffffff16638c0adf62836040518263ffffffff1660e01b81526004016103219190610782565b602060405180830381865afa15801561033e573d6000803e3d6000fd5b505050506040513d601f19601f8201168201806040525081019061036291906107ed565b9050600073ffffffffffffffffffffffffffffffffffffffff168173ffffffffffffffffffffffffffffffffffffffff16146104285780600080847bffffffffffffffffffffffffffffffffffffffffffffffffffffffff19167bffffffffffffffffffffffffffffffffffffffffffffffffffffffff1916815260200190815260200160002060006101000a81548173ffffffffffffffffffffffffffffffffffffffff021916908373ffffffffffffffffffffffffffffffffffffffff1602179055505b5050808061043590610849565b91505061027e565b50565b603c60025461044f9190610891565b42106104655761045d61027b565b426002819055505b565b600073ffffffffffffffffffffffffffffffffffffffff82169050919050565b6000819050919050565b60006104ac6104a76104a284610467565b610487565b610467565b9050919050565b60006104be82610491565b9050919050565b60006104d0826104b3565b9050919050565b6104e0816104c5565b82525050565b60006020820190506104fb60008301846104d7565b92915050565b600080fd5b60007fffffffff0000000000000000000000000000000000000000000000000000000082169050919050565b61053b81610506565b811461054657600080fd5b50565b60008135905061055881610532565b92915050565b60006020828403121561057457610573610501565b5b600061058284828501610549565b91505092915050565b6000819050919050565b61059e8161058b565b82525050565b6000819050919050565b6105b7816105a4565b82525050565b60006040820190506105d26000830185610595565b6105df60208301846105ae565b9392505050565b60006105f1826104b3565b9050919050565b610601816105e6565b82525050565b600060208201905061061c60008301846105f8565b92915050565b600060208201905061063760008301846105ae565b92915050565b6106468161058b565b811461065157600080fd5b50565b6000815190506106638161063d565b92915050565b610672816105a4565b811461067d57600080fd5b50565b60008151905061068f81610669565b92915050565b6000819050919050565b6106a881610695565b81146106b357600080fd5b50565b6000815190506106c58161069f565b92915050565b600080600080608085870312156106e5576106e4610501565b5b60006106f387828801610654565b945050602061070487828801610680565b9350506040610715878288016106b6565b925050606061072687828801610680565b91505092959194509250565b7f4e487b7100000000000000000000000000000000000000000000000000000000600052603260045260246000fd5b600061076c82610506565b9050919050565b61077c81610761565b82525050565b60006020820190506107976000830184610773565b92915050565b60006107a882610467565b9050919050565b60006107ba8261079d565b9050919050565b6107ca816107af565b81146107d557600080fd5b50565b6000815190506107e7816107c1565b92915050565b60006020828403121561080357610802610501565b5b6000610811848285016107d8565b91505092915050565b7f4e487b7100000000000000000000000000000000000000000000000000000000600052601160045260246000fd5b6000610854826105a4565b91507fffffffffffffffffffffffffffffffffffffffffffffffffffffffffffffffff82036108865761088561081a565b5b600182019050919050565b600061089c826105a4565b91506108a7836105a4565b92508282019050808211156108bf576108be61081a565b5b9291505056fea264697066735822122014bceb8a9e1ab7a0a959dc592030021334335f3cb038e822ce46174607b38acf64736f6c63430008110033",
  "linkReferences": {},
  "deployedLinkReferences": {}
}